KONTROLLE BV8333KVB 8333000                                                                                                                                                                                                                                    
205783202104300014105783    9000-9000-7003      01W0L000051T0815003010120212PMTEST                                                 PARTNEREINS                                                                         1234    4000-4000-401       HH  AD1234 0
315783202104300014101234    230720212PMTEST                                                 PARTNEREINS                                                                         4000-4000-401       W0L000051T081500311206042017010320211202101002000000J      
515783202104300014105783    22260420201         21291120201                                                                                                                                                                                                    
KONTROLLE BN20230127000100000007202207220002                                                                                                                                                                                                                   
