KONTROLLE BV8333KVB 8333000                                                                                                                                                                                                                                    
214000-4000-401     1234    5387    9000-9000-7035      040920222                                                                                                                                                                                              
315783202204300014101234    230720211PMTEST                                                 PARTNEREINS                                                                         9000-9000-7035      W0L000051T081500311206042017010320211202101003000000J      
515783202104300014101234    20040420201         22111120201         22111120201                                                                                                                                                                                
325783202104300014101234    230720211PMTEST                                                 PARTNEREINS                                                                         1000-1000-202       W0L000051T081500311206042017010320211202107002000000J      
525783202104300014101234    20111120201         22111120201                                                                                                                                                                                                    
KONTROLLE BN20230131000700000007202207220013                                                                                                                                                                                                                   
